{
  "contractName": "EFS",
  "abi": [
    {
      "anonymous": false,
      "inputs": [
        {
          "indexed": true,
          "internalType": "bytes32",
          "name": "key",
          "type": "bytes32"
        },
        {
          "indexed": false,
          "internalType": "string",
          "name": "value",
          "type": "string"
        }
      ],
      "name": "DataStored",
      "type": "event"
    },
    {
      "inputs": [
        {
          "internalType": "bytes32",
          "name": "key",
          "type": "bytes32"
        },
        {
          "internalType": "string",
          "name": "value",
          "type": "string"
        }
      ],
      "name": "storeData",
      "outputs": [],
      "stateMutability": "nonpayable",
      "type": "function"
    },
    {
      "inputs": [
        {
          "internalType": "bytes32[]",
          "name": "keys",
          "type": "bytes32[]"
        },
        {
          "internalType": "string[]",
          "name": "values",
          "type": "string[]"
        }
      ],
      "name": "batchStoreData",
      "outputs": [],
      "stateMutability": "nonpayable",
      "type": "function"
    },
    {
      "inputs": [
        {
          "internalType": "bytes32",
          "name": "key",
          "type": "bytes32"
        }
      ],
      "name": "getData",
      "outputs": [
        {
          "internalType": "string",
          "name": "",
          "type": "string"
        }
      ],
      "stateMutability": "view",
      "type": "function",
      "constant": true
    },
    {
      "inputs": [
        {
          "internalType": "bytes32",
          "name": "key",
          "type": "bytes32"
        }
      ],
      "name": "exists",
      "outputs": [
        {
          "internalType": "bool",
          "name": "",
          "type": "bool"
        }
      ],
      "stateMutability": "view",
      "type": "function",
      "constant": true
    }
  ],
  "bytecode": "0x608060405234801561001057600080fd5b50610ab8806100206000396000f3fe608060405234801561001057600080fd5b506004361061004c5760003560e01c806338a699a414610051578063519992391461008157806353794a931461009d57806354f6127f146100b9575b600080fd5b61006b60048036038101906100669190610436565b6100e9565b604051610078919061047e565b60405180910390f35b61009b60048036038101906100969190610788565b610113565b005b6100b760048036038101906100b29190610800565b610242565b005b6100d360048036038101906100ce9190610436565b6102a5565b6040516100e091906108e4565b60405180910390f35b600080600080848152602001908152602001600020805461010990610935565b9050119050919050565b8051825114610157576040517f08c379a000000000000000000000000000000000000000000000000000000000815260040161014e906109b2565b60405180910390fd5b60005b825181101561023d57818181518110610176576101756109d2565b5b6020026020010151600080858481518110610194576101936109d2565b5b6020026020010151815260200190815260200160002090805190602001906101bd929190610349565b508281815181106101d1576101d06109d2565b5b60200260200101517fb47f325ec5ac1f68149ca2686e2905c3e99b66bbeb96c5926eb5f91b7ba6388d83838151811061020d5761020c6109d2565b5b602002602001015160405161022291906108e4565b60405180910390a2808061023590610a3a565b91505061015a565b505050565b806000808481526020019081526020016000209080519060200190610268929190610349565b50817fb47f325ec5ac1f68149ca2686e2905c3e99b66bbeb96c5926eb5f91b7ba6388d8260405161029991906108e4565b60405180910390a25050565b606060008083815260200190815260200160002080546102c490610935565b80601f01602080910402602001604051908101604052809291908181526020018280546102f090610935565b801561033d5780601f106103125761010080835404028352916020019161033d565b820191906000526020600020905b81548152906001019060200180831161032057829003601f168201915b50505050509050919050565b82805461035590610935565b90600052602060002090601f01602090048101928261037757600085556103be565b82601f1061039057805160ff19168380011785556103be565b828001600101855582156103be579182015b828111156103bd5782518255916020019190600101906103a2565b5b5090506103cb91906103cf565b5090565b5b808211156103e85760008160009055506001016103d0565b5090565b6000604051905090565b600080fd5b600080fd5b6000819050919050565b61041381610400565b811461041e57600080fd5b50565b6000813590506104308161040a565b92915050565b60006020828403121561044c5761044b6103f6565b5b600061045a84828501610421565b91505092915050565b60008115159050919050565b61047881610463565b82525050565b6000602082019050610493600083018461046f565b92915050565b600080fd5b6000601f19601f8301169050919050565b7f4e487b7100000000000000000000000000000000000000000000000000000000600052604160045260246000fd5b6104e78261049e565b810181811067ffffffffffffffff82111715610506576105056104af565b5b80604052505050565b60006105196103ec565b905061052582826104de565b919050565b600067ffffffffffffffff821115610545576105446104af565b5b602082029050602081019050919050565b600080fd5b600061056e6105698461052a565b61050f565b9050808382526020820190506020840283018581111561059157610590610556565b5b835b818110156105ba57806105a68882610421565b845260208401935050602081019050610593565b5050509392505050565b600082601f8301126105d9576105d8610499565b5b81356105e984826020860161055b565b91505092915050565b600067ffffffffffffffff82111561060d5761060c6104af565b5b602082029050602081019050919050565b600080fd5b600067ffffffffffffffff82111561063e5761063d6104af565b5b6106478261049e565b9050602081019050919050565b82818337600083830152505050565b600061067661067184610623565b61050f565b9050828152602081018484840111156106925761069161061e565b5b61069d848285610654565b509392505050565b600082601f8301126106ba576106b9610499565b5b81356106ca848260208601610663565b91505092915050565b60006106e66106e1846105f2565b61050f565b9050808382526020820190506020840283018581111561070957610708610556565b5b835b8181101561075057803567ffffffffffffffff81111561072e5761072d610499565b5b80860161073b89826106a5565b8552602085019450505060208101905061070b565b5050509392505050565b600082601f83011261076f5761076e610499565b5b813561077f8482602086016106d3565b91505092915050565b6000806040838503121561079f5761079e6103f6565b5b600083013567ffffffffffffffff8111156107bd576107bc6103fb565b5b6107c9858286016105c4565b925050602083013567ffffffffffffffff8111156107ea576107e96103fb565b5b6107f68582860161075a565b9150509250929050565b60008060408385031215610817576108166103f6565b5b600061082585828601610421565b925050602083013567ffffffffffffffff811115610846576108456103fb565b5b610852858286016106a5565b9150509250929050565b600081519050919050565b600082825260208201905092915050565b60005b8381101561089657808201518184015260208101905061087b565b838111156108a5576000848401525b50505050565b60006108b68261085c565b6108c08185610867565b93506108d0818560208601610878565b6108d98161049e565b840191505092915050565b600060208201905081810360008301526108fe81846108ab565b905092915050565b7f4e487b7100000000000000000000000000000000000000000000000000000000600052602260045260246000fd5b6000600282049050600182168061094d57607f821691505b6020821081036109605761095f610906565b5b50919050565b7f4b65797320616e642076616c756573206c656e677468206d69736d6174636800600082015250565b600061099c601f83610867565b91506109a782610966565b602082019050919050565b600060208201905081810360008301526109cb8161098f565b9050919050565b7f4e487b7100000000000000000000000000000000000000000000000000000000600052603260045260246000fd5b7f4e487b7100000000000000000000000000000000000000000000000000000000600052601160045260246000fd5b6000819050919050565b6000610a4582610a30565b91507fffffffffffffffffffffffffffffffffffffffffffffffffffffffffffffffff8203610a7757610a76610a01565b5b60018201905091905056fea2646970667358221220591be4226607103912de82d37aede07503e26a7896685eafd32e39bcd3ff6a3c64736f6c634300080d0033",
  "immutableReferences": {},
  "source": "// SPDX-License-Identifier: MIT\npragma solidity ^0.8.0;\n\ncontract SimpleStorage {\n    // \n    mapping(bytes32 => string) private data;\n\n    // \n    event DataStored(bytes32 indexed key, string value);\n\n    // \n    function storeData(bytes32 key, string memory value) public {\n        data[key] = value;\n        emit DataStored(key, value);\n    }\n\n    // \n    function batchStoreData(bytes32[] memory keys, string[] memory values) public {\n        require(keys.length == values.length, \"Keys and values length mismatch\");\n        for (uint256 i = 0; i < keys.length; i++) {\n            data[keys[i]] = values[i];\n            emit DataStored(keys[i], values[i]);\n        }\n    }\n\n    // \n    function getData(bytes32 key) public view returns (string memory) {\n        return data[key];\n    }\n\n    // \n    function exists(bytes32 key) public view returns (bool) {\n        return bytes(data[key]).length > 0;\n    }\n}\n\n\n",
  "sourcePath": "/home/sun/VESS/contracts/SimpleStorage.sol",
  "compiler": {
    "name": "solc",
    "version": "0.8.13+commit.abaa5c0e.Emscripten.clang"
  },
  "schemaVersion": "3.4.14",
  "updatedAt": "2024-10-30T01:47:40.566Z",
  "networkType": "ethereum",
  "devdoc": {
    "kind": "dev",
    "methods": {},
    "version": 1
  },
  "userdoc": {
    "kind": "user",
    "methods": {},
    "version": 1
  }
}